:020000040800F2
:1000000000000520DD1C0008ED1B0008EF1B0008A8
:10001000F11B0008F31B0008F51B0008000000009E
:10002000000000000000000000000000B1AD00086A
:10003000F71B00080000000051AE0008B5AE000834
:100040002D1D00082D1D00082D1D00082D1D000868
:100050002D1D00082D1D00082D1D00082D1D000858
:100060002D1D00082D1D00082D1D00082D1D000848
:100070002D1D00082D1D00082D1D00082D1D000838
:100080002D1D00082D1D00082D1D00082D1D000828
:100090002D1D00082D1D00082D1D00082D1D000818
:1000A0002D1D00082D1D00082D1D00082D1D000808
:1000B0002D1D00082D1D00082D1D00082D1D0008F8
:1000C0002D1D00082D1D00082D1D00082D1D0008E8
:1000D0002D1D00082D1D00082D1D00082D1D0008D8
:1000E0002D1D00082D1D00082D1D00082D1D0008C8
:1000F0002D1D00082D1D00082D1D00082D1D0008B8
:100100002D1D00082D1D00082D1D00082D1D0008A7
:100110002D1D00082D1D0008F91B00082D1D0008CD
:10012000051C00082D1D00082D1D00082D1D0008B0
:100130002D1D00082D1D00082D1D00082D1D000877
:100140002D1D00082D1D00082D1D00082D1D000867
:100150002D1D00082D1D00082D1D00082D1D000857
:100160002D1D00082D1D00082D1D00082D1D000847
:100170002D1D00082D1D00082D1D00080000000089
:100180002D1D00082D1D00082D1D00082D1D000827
:100190002D1D00082D1D00082D1D00082D1D000817
:1001A000111C00082D1D00081D1C00082D1D000835
:1001B0002D1D00082D1D00082D1D00082D1D0008F7
:0801C0002D1D00082D1D000893
:1001D00010B5054C237833B9044B13B10448AFF381
:1001E00000800123237010BD2401002000000000C6
:1001F0004832030808B5034B1BB103490348AFF36A
:10020000008008BD000000002801002048320308DB
:1002100001F0FF01102A2BDB10F0070F08D010F8B7
:10022000013B013A8B422DD010F0070F42B3F6D1BB
:10023000F0B441EA012141EA014122F007047FF0D4
:1002400000070023F0E80256083C85EA010586EA2B
:10025000010685FA47F5A3FA87F586FA47F6A5FA67
:1002600087F68EB9EED1F0BC01F0FF0102F0070273
:1002700032B110F8013B013A83EA010313B1F8D11E
:100280000020704701387047002D06BF35460338FF
:10029000073815F0010F07D1013015F4807F02BF38
:1002A000013015F4C03F0130F0BC0138704700BF89
:1002B00081F0004102E000BF83F0004330B54FEA17
:1002C00041044FEA430594EA050F08BF90EA020F84
:1002D0001FBF54EA000C55EA020C7FEA645C7FEA17
:1002E000655C00F0E2804FEA5454D4EB5555B8BF3A
:1002F0006D420CDD2C4480EA020281EA030382EAAB
:10030000000083EA010180EA020281EA0303362D3C
:1003100088BF30BD11F0004F4FEA01314FF4801C0F
:100320004CEA113102D0404261EB410113F0004F21
:100330004FEA03334CEA133302D0524263EB4303D8
:1003400094EA050F00F0A780A4F10104D5F1200E76
:100350000DDB02FA0EFC22FA05F2801841F10001D1
:1003600003FA0EF2801843FA05F359410EE0A5F1A5
:1003700020050EF1200E012A03FA0EFC28BF4CF0D6
:10038000020C43FA05F3C01851EBE37101F000458C
:1003900007D54FF0000EDCF1000C7EEB00006EEB99
:1003A0000101B1F5801F1BD3B1F5001F0CD3490823
:1003B0005FEA30004FEA3C0C04F101044FEA44527A
:1003C00012F5800F80F09A80BCF1004F08BF5FEA01
:1003D000500C50F1000041EB045141EA050130BDE1
:1003E0005FEA4C0C404141EB0101013C28BFB1F5F3
:1003F000801FE9D291F0000F04BF01460020B1FA3E
:1004000081F308BF2033A3F10B03B3F120020CDA10
:100410000C3208DD02F1140CC2F10C0201FA0CF0EE
:1004200021FA02F10CE002F11402D8BFC2F1200C53
:1004300001FA02F120FA0CFCDCBF41EA0C01904009
:10044000E41AA2BF01EB0451294330BD6FEA040452
:100450001F3C1CDA0C340EDC04F11404C4F120023D
:1004600020FA04F001FA02F340EA030021FA04F34F
:1004700045EA030130BDC4F10C04C4F1200220FAA6
:1004800002F001FA04F340EA0300294630BD21FAE4
:1004900004F0294630BD94F0000F83F4801306BFAA
:1004A00081F480110134013D4EE77FEA645C18BF9E
:1004B0007FEA655C29D094EA050F08BF90EA020F35
:1004C00005D054EA000C04BF1946104630BD91EA2D
:1004D000030F1EBF0021002030BD5FEA545C05D130
:1004E0004000494128BF41F0004130BD14F580046F
:1004F0003CBF01F5801130BD01F0004545F0FE41E3
:1005000041F470014FF0000030BD7FEA645C1ABF17
:10051000194610467FEA655C1CBF0B46024650EA4E
:10052000013406BF52EA033591EA030F41F400217A
:1005300030BD00BF90F0000F04BF0021704730B500
:100540004FF4806404F132044FF000054FF00001D5
:1005500050E700BF90F0000F04BF0021704730B596
:100560004FF4806404F1320410F0004548BF40426B
:100570004FF000013EE700BF42004FEAE2014FEAC0
:1005800031014FEA02701FBF12F07F4393F07F4F9B
:1005900081F06051704732F07F4208BF704793F09E
:1005A0007F4F04BF41F40021704730B54FF46074B1
:1005B00001F0004521F000411CE700BF50EA0102B4
:1005C00008BF704730B54FF000050AE050EA01025D
:1005D00008BF704730B511F0004502D5404261EBCD
:1005E00041014FF4806404F132045FEA915C3FF40E
:1005F000D8AE4FF003025FEADC0C18BF03325FEAAB
:10060000DC0C18BF033202EBDC02C2F1200300FA5B
:1006100003FC20FA02F001FA03FE40EA0E0021FA80
:1006200002F11444BDE600BF70B54FF0FF0C4CF46E
:10063000E06C1CEA11541DBF1CEA135594EA0C0F20
:1006400095EA0C0F00F0DEF82C4481EA030621EA5B
:100650004C5123EA4C5350EA013518BF52EA033596
:1006600041F4801143F4801338D0A0FB02CE4FF048
:100670000005E1FB02E506F00042E0FB03E54FF078
:100680000006E1FB03569CF0000F18BF4EF0010E70
:10069000A4F1FF04B6F5007F64F5407404D25FEA6C
:1006A0004E0E6D4146EB060642EAC62141EA55511F
:1006B0004FEAC52040EA5E504FEACE2EB4F1FD0C61
:1006C00088BFBCF5E06F1ED8BEF1004F08BF5FEADF
:1006D000500E50F1000041EB045170BD06F0004691
:1006E00046EA010140EA020081EA0301B4EB5C043E
:1006F000C2BFD4EB0C0541EA045170BD41F4801136
:100700004FF0000E013C00F3AB8014F1360FDEBF5A
:10071000002001F0004170BDC4F10004203C35DA36
:100720000C341BDC04F11404C4F1200500FA05F3B9
:1007300020FA04F001FA05F240EA020001F000425A
:1007400021F0004110EBD37021FA04F642EB0601D0
:100750005EEA430E08BF20EAD37070BDC4F10C04FA
:10076000C4F1200500FA04F320FA05F001FA04F2BE
:1007700040EA020001F0004110EBD37041F10001AA
:100780005EEA430E08BF20EAD37070BDC4F12005B5
:1007900000FA05F24EEA020E20FA04F301FA05F21D
:1007A00043EA020321FA04F001F0004121FA04F2C5
:1007B00020EA020000EBD3705EEA430E08BF20EA95
:1007C000D37070BD94F0000F0FD101F000464000CF
:1007D00041EB010111F4801F08BF013CF7D041EA51
:1007E000060195F0000F18BF704703F00046520055
:1007F00043EB030313F4801F08BF013DF7D043EA26
:100800000603704794EA0C0F0CEA135518BF95EADB
:100810000C0F0CD050EA410618BF52EA4306D1D162
:1008200081EA030101F000414FF0000070BD50EA81
:10083000410606BF1046194652EA430619D094EA0B
:100840000C0F02D150EA013613D195EA0C0F05D1F5
:1008500052EA03361CBF104619460AD181EA030149
:1008600001F0004141F0FE4141F470014FF0000001
:1008700070BD41F0FE4141F4780170BD70B54FF09C
:10088000FF0C4CF4E06C1CEA11541DBF1CEA13551C
:1008900094EA0C0F95EA0C0F00F0A7F8A4EB0504FE
:1008A00081EA030E52EA03354FEA013100F08880F5
:1008B0004FEA03334FF0805545EA131343EA1263BE
:1008C0004FEA022245EA111545EA10654FEA002673
:1008D0000EF000419D4208BF964244F1FD0404F52C
:1008E000407402D25B084FEA3202B61A65EB030588
:1008F0005B084FEA32024FF480104FF4002CB6EB45
:10090000020E75EB030E22BFB61A754640EA0C00C4
:100910005B084FEA3202B6EB020E75EB030E22BF04
:10092000B61A754640EA5C005B084FEA3202B6EB45
:10093000020E75EB030E22BFB61A754640EA9C0004
:100940005B084FEA3202B6EB020E75EB030E22BFD4
:10095000B61A754640EADC0055EA060E18D04FEA92
:10096000051545EA16754FEA06164FEAC30343EA32
:1009700052734FEAC2025FEA1C1CC0D111F4801FFF
:100980000BD141EA00014FF000004FF0004CB6E7F8
:1009900011F4801F04BF01430020B4F1FD0C88BF97
:1009A000BCF5E06F3FF6AFAEB5EB030C04BFB6EBA2
:1009B000020C5FEA500C50F1000041EB045170BD95
:1009C0000EF0004E4EEA113114EB5C04C2BFD4EBC2
:1009D0000C0541EA045170BD41F480114FF0000E46
:1009E000013C90E645EA060E8DE60CEA135594EAC2
:1009F0000C0F08BF95EA0C0F3FF43BAF94EA0C0FC5
:100A00000AD150EA01347FF434AF95EA0C0F7FF439
:100A100025AF104619462CE795EA0C0F06D152EA8D
:100A200003353FF4FDAE1046194622E750EA410671
:100A300018BF52EA43067FF4C5AE50EA41047FF482
:100A40000DAF52EA43057FF4EBAE12E74FEA4102E5
:100A5000B2F1E04324BFB3F5001CDCF1FE5C0DD91C
:100A600001F0004C4FEAC0024CEA5070B2F1004F66
:100A700040EB830008BF20F00100704711F0804F69
:100A800021D113F13872BCBF01F00040704741F42E
:100A900080114FEA5252C2F11802C2F1200C10FA32
:100AA0000CF320FA02F018BF40F001004FEAC12316
:100AB0004FEAD32303FA0CFC40EA0C0023FA02F3BA
:100AC0004FEA4303CCE77FEA625307D150EA013390
:100AD0001EBF4FF0FE4040F44000704701F0004060
:100AE00040F0FE4040F40000704700BF7BB972B98F
:100AF0000029BEBF00204FF0004106E008BF0028DB
:100B00001CBF6FF000414FF0FF3000F0B5B9ADF100
:100B1000080C6DE904CE002909DB002B1ADB00F07C
:100B20004DF8DDF804E0DDE9022304B070474042EF
:100B300061EB4101002B1BDB00F040F8DDF804E025
:100B4000DDE9022304B0404261EB4101524263EB14
:100B500043037047524263EB430300F02FF8DDF884
:100B600004E0DDE9022304B0404261EB410170473B
:100B7000524263EB430300F021F8DDF804E0DDE9C5
:100B8000022304B0524263EB4303704753B94AB99E
:100B9000002908BF00281CBF4FF0FF314FF0FF3085
:100BA00000F06AB9ADF1080C6DE904CE00F006F86A
:100BB000DDF804E0DDE9022304B070472DE9F047D9
:100BC000089D0C46002B4ED194468C458646B2FAC1
:100BD00082F262D94AB1C2F12003914020FA03F3B4
:100BE0000CFA02FC194300FA02FE4FEA1C471FFAF6
:100BF0008CF6B1FBF7F44FEA1E4307FB141143EAEE
:100C0000014304FB06F199420AD91CEB030304F1EA
:100C1000FF3080F01281994240F20F81023C634420
:100C2000591A1FFA8EF3B1FBF7F007FB101143EAD4
:100C3000014300FB06F69E420AD91CEB030300F1B8
:100C4000FF3180F0FC809E4240F2F980634402381C
:100C50009B1B40EA044000211DB1D3400022C5E99E
:100C60000032BDE8F0878B4205D90DB1C5E900011E
:100C700000210846F5E7B3FA83F1002946D1A342E3
:100C800002D39042C0F0F080861A64EB0303012087
:100C9000002DE6D0C5E90063E3E7002A40F090802C
:100CA000A1EB0C044FEA1C481FFA8CF70121B4FB9E
:100CB000F8F64FEA1E4308FB164443EA044307FBD9
:100CC00006F0984208D91CEB030306F1FF3402D268
:100CD000984200F2CD8026461C1A1FFA8EF3B4FB10
:100CE000F8F008FB104443EA044300FB07F79F4277
:100CF00008D91CEB030300F1FF3402D29F4200F23B
:100D0000B0802046DB1B40EA0640A5E7C1F1200683
:100D10008B4022FA06F71F4320FA06FC04FA01F37F
:100D200043EA0C03F44000FA01F8380C4FEA134987
:100D3000B4FBF0FE1FFA87FC00FB1E4449EA0444A2
:100D40000EFB0CF9A14502FA01F20AD93C190EF189
:100D5000FF3A80F08480A14540F28180AEF1020E1E
:100D60003C44A4EB09041FFA83F9B4FBF0F300FB45
:100D7000134449EA044403FB0CFCA44507D93C197D
:100D800003F1FF3067D2A44565D9023B3C4443EAF6
:100D90000E40A0FB0293A4EB0C049C42CE469C4662
:100DA00051D34ED055B1B8EB0E0364EB0C0404FAEA
:100DB00006F6CB401E43CC40C5E90064002150E755
:100DC000C2F1200320FA03F10CFA02FC24FA03F327
:100DD00094400C434FEA1C4800FA02FE1FFA8CF7BD
:100DE000B3FBF8F008FB1031230C43EA014300FB8E
:100DF00007F1994208D91CEB030300F1FF362CD20E
:100E000099422AD9023863445B1AA4B2B3FBF8F1C1
:100E100008FB113344EA034401FB07F3A34208D95A
:100E20001CEB040401F1FF3613D2A34211D902399D
:100E30006444E41A41EA004139E70446F0E6084612
:100E400006E7C845AED2B9EB020E63EB070C0138DA
:100E5000A8E73146EDE7034699E73046D4E7D646A2
:100E60007FE7634402384DE70646234608460FE70E
:100E7000023E634430E700BF704700BF01490020D5
:100E80000BF0A6B9D921000808B5642009F0A0FB31
:100E9000FBE70000034A044B1188528819805A80EE
:100EA000704700BF440100204001002010B594B0FD
:100EB0001022002102240AA831F032FA1422002163
:100EC00003A831F02DFA1D4B192108A81A6C42F025
:100ED00080521A641B6C03F080530193019B184BE2
:100EE0001A6842F440421A6001221B6803F440432E
:100EF0000293029B4FF48033CDE908234FF4800323
:100F0000CDE90E434FF4D873CDE91244CDE9101367
:100F100008F044F807F0E0FC0F2300200721CDE99A
:100F200003344FF4A053CDE905034FF4805303A8D5
:100F3000079308F01BFA14B010BD00BF0038024040
:100F4000007000402DE98048A5B010220021012545
:100F500017A8002431F0E4F906F074FACA4B4FF0F8
:100F60001040ADF85C501A94CDE9180317A806F0AC
:100F700087FA172317A88DF85D508DF864308DF827
:100F80006A5006F07DFA042006F06AFABFF34F8F2C
:100F9000BFF36F8FBD4AC2F85042BFF34F8FBFF30C
:100FA0006F8F536943F400335361BFF34F8FBFF327
:100FB0006F8FC2F88440BFF34F8FD2F8803043F672
:100FC000E074C3F3C900C3F34E335B0103EA0406C4
:100FD000014646EA81750139C2F86052F9D2203BD8
:100FE00013F1200FF2D1BFF34F8F536943F48033D5
:100FF0005361BFF34F8FBFF36F8FA54D05F054FFC3
:10100000FFF754FF1422002117A831F089F92B6B48
:101010000022102143F010039E48002401262B6378
:1010200010272B6B4FF003084FF4805A4FF0400B02
:1010300003F010034FF004090293029B2B6B43F063
:1010400002032B632B6B03F002030393039B2B6BB5
:1010500043F001032B632B6B03F001030493049B08
:101060002B6B43F040032B632B6B03F04003059382
:10107000059B2B6B43F400732B632B6B03F4007302
:101080000693069B2B6B43F008032B632B6B03F03B
:1010900008030793079B2B6B43F480632B632B6B35
:1010A00003F480630893089B2B6B43F020032B63AE
:1010B0002B6B03F020030993099B2B6B43F4807384
:1010C0002B632B6B03F480730A930A9B2B6B43F007
:1010D00080032B632B6B03F080030B930B9B2B6B19
:1010E00043F004032B632B6B03F004030C930C9B62
:1010F00006F0A4FE01220821674806F09FFE0122A7
:101100004FF48051654806F099FE0022C0216448E2
:1011100006F094FE00224021624806F08FFE17A9D7
:101120005C48CDE91776CDE9194806F003FD0823A0
:1011300017A95948CDE91736CDE9194406F0FAFC4C
:1011400017A95648CDE917A6CDE9194406F0F2FCD7
:10115000C02317A95248CDE91736CDE9194806F042
:10116000E9FC17A94F48CDE917B6CDE9194806F0B3
:10117000E1FC2B6B2246052143F4800338202B63CE
:101180002B6B494D03F480030193019B06F008F992
:10119000382006F037F9454B2846C5E90034C5E943
:1011A0000244C5E90A44C5E90C4406F0C5FB3146D2
:1011B00028463F4D06F078FC4FF4C0723D4B17A90E
:1011C000C5F814B02846DFF8F4B0AC60AC62C5E9ED
:1011D00006244FF40062C5E9082A4FF0020A0722EC
:1011E000C5E90034C5E90397CDE917A2CDE9199205
:1011F000CDE91B8ACDF874A008F00EFC59464FF6D5
:10120000FF7228460094CBE90067CBE9026408F03E
:1012100023FC304605F06CFE59464FF6FF72284617
:10122000CBE90264CBE900A708F016FC0823594675
:101230004FF6FF722846CBE90234CBE9008708F06D
:101240000BFC4FF40C725946284600924FF480680C
:10125000009ACBF80860CBF80C204FF6FF72CBE970
:10126000009708F0F9FB40F22B712846124D08F068
:1012700012FC43F2D2014FF0204264204FF0180BD1
:10128000116005F035FE1BE01B00000300ED00E0DF
:1012900000380240000402400028024000200240C2
:1012A00000080240001802402C03002000B0024059
:1012B00064010020400100A0D80200204801002065
:1012C000894B8A4A28462C62C5E90032C5E90246A4
:1012D000C5E90444C5E9064406F0F1FE2146284666
:1012E00007F014F921462846814D07F035F93422DC
:1012F000214617A831F014F87E4A2821352040F203
:10130000152C40F2352E2C61AC8685F83640C5E9A7
:1013100000240922C5E905120B22C5E9070240F2A3
:101320001B122846C5E909C240F21D12C5E9024454
:10133000C5E90BE207F0BCF9FF204FF4F0714FF460
:10134000887217942292ADF88C408DF88E40CDE9CA
:101350001C040520CDE91E804FF04040CDE9181453
:10136000CDE92001CDE91A2A17A922462846624D67
:1013700007F069FA6148624A0462C0E900264FF446
:10138000A062C0E90297C0E904B2C0E9064407F0D0
:10139000BDFB05F009FC05F04FFB5C2006F040F8B2
:1013A00000F09AFC21463A4617A830F0B9FF554B99
:1013B0004FF4803228462E6185F830606E61AC6053
:1013C000AC6185F82040EC60C5F81CA0C5E900328E
:1013D0004FF08052C5E90A4205F09CFD17A9284646
:1013E0001996CDE9174605F01BFF17A92846CDE948
:1013F000179A05F015FF4448444B06620360848049
:10140000434EC0E9054406F067F81C22214610A8A7
:101410000F94CDE90D4430F083FF21462C2217A80C
:1014200030F07EFF3B4AD7233046B460C6E9002344
:1014300040F2E733C6E90544C6E9033408F0A8FDE5
:101440000DA930460F94CDE90D4408F019FF4FF473
:10145000FA736021224630461694CDE9101310A984
:10146000CDE91244CDE9144408F0FAFD4FF40053DD
:1014700017A930461B941E942194CDE91C344FF0DB
:101480000073CDE91744CDE91F34CDE9194408F0C4
:1014900041FF304600F0CCFA00F04AFC00F047FC77
:1014A0002146304608F0EAFE52461B49284605F020
:1014B000D7FD08F0FFFF194A2146194809F034F812
:1014C000184B194A21461860184809F02DF8184B96
:1014D000184A21461860184809F026F8174B18607A
:1014E00009F002F8FEE700BF005C004068474020BA
:1014F0003002002000680140F0030020E4010020D9
:10150000001000A0002201406C03002000300240C7
:101510009801002000000140440100200C33030822
:10152000890E000860010020E83203083F1D000812
:101530005C010020C4320308E13700085801002094
:101540000268034B9A4201D105F0C0BC704700BF4E
:1015500000100040704700000D4B82B00F216FF06B
:1015600001001A6C42F080521A641A6C02F0805228
:101570000092009A5A6C42F480425A6400225B6CDA
:1015800003F480430193019B02B005F009BF00BF43
:101590000038024070B588B005461422002103A827
:1015A00030F0BEFE2A68284B9A424BD103F58B33AC
:1015B000032403A925485A6C002642F480625A6429
:1015C0005A6C02F480620092009A1A6B42F0200278
:1015D0001A631A6B02F020020192019A1A6B42F010
:1015E00001021A631B6B03F001030293029B402369
:1015F000CDE9033406F09EFA012303A914480596A9
:10160000CDE9033406F096FA124C4FF08063124A8B
:101610004FF480614FF40050C4E900234FF400639D
:10162000C4E904134FF48073C4E906032046C4E9F7
:101630000266C4E9086605F0C7FF08B1FFF78AFF34
:10164000AC63A56308B070BD0022014000140240E5
:10165000000002409003002010640240026882B043
:10166000084B9A420BD1D3F8302803F5006342F4BB
:1016700080521A631B6B03F480530193019B02B0E9
:10168000704700BF003002400E4B07B502689A4217
:1016900015D1A3F5F04305215A201A6B42F400023C
:1016A0001A6300221B6B03F400030193019B05F0F6
:1016B00077FE5A2003B05DF804EB05F0A3BE03B03B
:1016C0005DF804FB00B0024010B5A8B00446142237
:1016D000002102A830F024FE8422002107A830F067
:1016E0001FFE2268174B9A422AD14FF4803307A875
:1016F000079307F007FF08B1FFF72CFF124C4FF4D8
:10170000C07201211148236B43F080032363236BD4
:1017100003F080030093009B1223CDE902230323EF
:10172000CDE90413042302A9069306F003FA236CFF
:1017300043F400032364236C03F400030193019B2F
:1017400028B010BD005C004000380240001C024080
:10175000026808B5094B9A420FD1094A802109480D
:10176000136C23F40003136406F0C8FA4FF480717D
:101770000448BDE8084006F0C1BA08BD005C00405E
:1017800000380240001C024070B5ACB00446142280
:10179000002106A830F0C4FD842200210BA830F0FF
:1017A000BFFD2268484B9A4240F08C8008230520F8
:1017B00001240B934FF4C07310930223CDE9113031
:1017C0004FF400330BA8CDE9154307F09BFE08B199
:1017D000FFF7C0FE3D4B002402250E265A6C06A9D9
:1017E0003B4842F080625A645A6C02F08062009278
:1017F000009A1A6B42F010021A631A6B02F0100280
:101800000192019A1A6B42F400721A631A6B02F485
:1018100000720292029A1A6B42F480621A631A6B87
:1018200002F480620392039A1A6B42F040021A6338
:101830001A6B02F040020492049A1A6B42F480720E
:101840001A631B6B03F480730593059B1023CDE98A
:101850000635CDE908440A9606F06CF94EF6FF739A
:1018600006A91C480A96CDE90635CDE9084406F0DC
:1018700061F9F72306A918480A96CDE90635CDE99E
:10188000084406F057F94FF4805306A91348CDE9F0
:1018900006350923CDE908440A9306F04BF94FF4C5
:1018A000464306A90E480A96CDE90635CDE9084417
:1018B00006F040F958202246052105F071FD582018
:1018C00005F0A0FD2CB070BD00680140003802405A
:1018D000001002400024024000280240001802408C
:1018E00000200240142200212DE9F0418AB0044674
:1018F0000DEB020030F014FD22682C4B9A4251D1BE
:101900002B4B0225032409269A6B4FF0040805A9E6
:10191000284842F0020200279A639A6B02F0020202
:101920000192019A1A6B42F010021A631A6B02F0CC
:1019300010020292029A1A6B42F002021A631A6BA8
:1019400002F002020392039A1A6B42F008021A6331
:101950001B6B03F008030493049BCDE90585CDE9D7
:10196000084606F0E7F8402305A91348CDE90535F8
:101970000A23CDE90774099306F0DCF805A90E489F
:101980000996CDE90585CDE9077406F0D3F84FF443
:10199000605305A909480996CDE90535CDE90774D5
:1019A00006F0C8F80AB0BDE8F08100BF001000A042
:1019B000003802400010024000040240000C0240C7
:1019C000026808B50B4B9A4213D10B4A04210B480D
:1019D000936B23F00203936306F090F944210848C7
:1019E00006F08CF94FF460510648BDE8084006F057
:1019F00085B908BD001000A0003802400010024068
:101A000000040240000C0240026882B0074B9A4278
:101A10000AD103F59C335A6C42F001025A645B6CA4
:101A200003F001030193019B02B0704700000140E5
:101A300010B586B004461422002101A830F070FCD5
:101A400022680D4B9A4215D103F59C3301A90B482E
:101A50001A6B42F001021A634FF480721B6B03F0A1
:101A600001030093009B0223CDE901230123059389
:101A700006F060F806B010BD000001400000024012
:101A8000F0B5002387B00393294B1E68002E4DD17B
:101A90000122022703250C241A6001A9254B2648A0
:101AA0009A6B42F001029A639B6B03F0010300936F
:101AB000009B4FF68373CDE90454CDE9013706F05E
:101AC00039F848F2331301A91C480594CDE90137D0
:101AD000CDE9036506F02EF84CF2037301A918480E
:101AE0000594CDE90137CDE9036506F023F84FF6FB
:101AF0003F0301A913480594CDE90137CDE90365FA
:101B000006F018F8282301A90F480594CDE90137FC
:101B1000CDE9036506F00EF8082301A90B480594EA
:101B2000CDE90137CDE9036506F004F807B0F0BD53
:101B30003804002000380240001002400018024023
:101B4000000C024000140240001C02400008024049
:101B5000214B1A6C42F0100270B51A6488B01B6CED
:101B6000054601A903A803F010030293029B07F0A6
:101B7000ABFC069B4BBB07F097FC184E184B336031
:101B800040F2E733F360174BB0FBF3F3013B304611
:101B9000736000233361B360B36108F0C9F9044690
:101BA00080B9304608F076F8044658B9362005F07A
:101BB00029FC0F2D0DD822462946362005F0F0FBD2
:101BC000094B1D60204608B070BD07F06DFC400059
:101BD000D3E70124F6E700BF003802403C040020B0
:101BE0000010004040420F003C0000207047FEE71C
:101BF000FEE7FEE7FEE77047014808F08DB800BF3A
:101C00003C040020014805F0D9BD00BF900300202E
:101C1000014806F0BBBD00BF30020020014805F0BE
:101C2000B9BE00BF2C0300200120704708B530F07A
:101C300081FC162303604FF0FF3008BD08B530F07B
:101C400079FC16230360FEE770B50D4614460E4678
:101C5000731B9C4201DC204670BDAFF3008006F888
:101C6000010BF5E770B50D4614460E46731B9C42FA
:101C700001DC204670BD16F8010BAFF30080F5E7DC
:101C80004FF0FF3070474FF4005300204B60704717
:101C900001207047002070470B4A0346116810B5B9
:101CA00009B90A491160106809490A4C0344091B23
:101CB0008B4206D930F03EFC0C2303604FF0FF301E
:101CC00010BD1360FCE700BF88040020F8830120EA
:101CD00000000520000A000070470000DFF834D043
:101CE000002103E00C4B5B58435004310B480C4B74
:101CF00042189A42F6D30B4A02E0002342F8043B12
:101D0000094B9A42F9D304F0E7FF30F019FCFFF7D2
:101D100019F9704700000520889103080000002091
:101D20002401002024010020F8830120FEE77047F1
:101D300008B501F02FF9BDE8084001F0B1B801F095
:101D40002BB9406870474160704700004FF0E022B7
:101D5000D2F8FC3D43F08073C2F8FC3D054B064AC7
:101D6000D3F8B01F0A43C3F8B02F1A6842F001023B
:101D70001A607047001000E055CEACC5521A02EB55
:101D80005302B2FBF3F07047014B5868704700BF35
:101D9000001000E0704710B504460C212FF0BDF88C
:101DA000204610BD036810B51B69044631B1984741
:101DB000A26863689B1A0344636010BD9847A060E3
:101DC000FBE70000024B7020024A1360DB681847F3
:101DD000100000208C040020704710B50446042138
:101DE0002FF09BF8204610BD73B50E4E0D461446DD
:101DF000336813B9002002B070BD1B69702098478A
:101E00000028F7D03368702001AA0DF106015B6944
:101E10009847BDF8043001202B60BDF806302360E0
:101E2000E9E700BF8C0400207FB501238DF817205F
:101E30004FF47A72CDE901320DF1170200920A4691
:101E40000146054806F0AAF910B1034806F08CF9DE
:101E500007B05DF804FB00BFD80200207FB5002367
:101E60000A464FF47A718DF817300123CDE901311C
:101E70000DF1170100910146054806F069FA10B10D
:101E8000034806F071F99DF8170007B05DF804FBF0
:101E9000D8020020032823D8DFE800F0020B131A31
:101EA000104B102110481A68B2FA82F2520905F05C
:101EB000C5BF0C4B40215A68B2FA82F252090B4856
:101EC000F5E7084B80219A68B2FA82F25209F6E7E8
:101ED000044B40210648DA68B2FA82F25209E6E77A
:101EE000704700BF90040020000402400008024038
:101EF00000180240032823D8DFE800F0020B131A71
:101F0000104B102110481A68003A18BF012205F042
:101F100095BF0C4B40215A68003A18BF01220B486C
:101F2000F5E7084B80219A68003A18BF0122F6E7CE
:101F3000044B40210648DA68003A18BF0122E6E760
:101F4000704700BF900400200004024000080240D7
:101F50000018024003280FD8DFE800F00206090B42
:101F60001021064805F06FBF40210548FAE780219F
:101F7000FBE740210348F5E7704700BF000402403B
:101F8000000802400018024008B5032813D8DFE813
:101F900000F0020A0D0F1021084805F049FF431E0A
:101FA0005842584108BD40210548F6E78021FBE72B
:101FB00040210448F1E70020F1E700BF000402409F
:101FC000000802400018024070B5084D00240126A8
:101FD000E0B2FFF7D9FF18B12B68012B18BF2E60B4
:101FE00001340435052CF3D170BD00BF90040020EE
:101FF000012380F8781080F879307047002070470E
:1020000041640039024B18BF01211970704700BFAD
:10201000BF77012000207047836B0BB1084618473B
:1020200070474FF6FF707047406803689B69184718
:102030007047000038B5044601F0FCF808492368F1
:102040002046084DD3F88C3098470023284684F862
:102050004A30FFF77BFE0123256184F8703038BDDC
:10206000000000C0A004002001F086B801F08AB88A
:1020700070B501F009F910490023C1F88430BFF3AD
:102080004F8FD1F8803043F6E074C3F3C900C3F337
:102090004E335B0103EA0406024646EA8275013AC2
:1020A000C1F87452F9D2203B13F1200FF2D1BFF3E3
:1020B0004F8FBFF36F8F70BD00ED00E001F0E6B809
:1020C00001F036B801F008BA01F010BA01F03AB8E0
:1020D00010B5044618F0C6FD23682046D3F8AC308E
:1020E000BDE81040184718F01BB810B504467C2115
:1020F0002EF013FF204610BD90F834100D4B10B594
:1021000090F878401A788C4209D03AB90A490B4ABB
:1021100008881488108001220C801A7010BD002AD3
:10212000FCD0064A0449148808880C8010800022DC
:10213000F3E700BFB8770120B6770120B47701201C
:1021400070B50D46194635B9094B40F2D221094AFE
:1021500009482FF029FEC0E90F52003A074B18BF7B
:1021600001221A700368BDE87040D3F88C3018471C
:1021700070330308A8330308F6330308BE77012041
:1021800008B5094B1B888B4203D8084B1B88934228
:1021900005D9074B9E21074A07482FF005FE074B3C
:1021A0001980074B1A8008BDB4770120B67701204B
:1021B0003B3403089E340308F6330308BA77012042
:1021C000BC770120034690F87A0018B1586803687C
:1021D0001B68184770470000014608B5034B186894
:1021E00001B1012118F058FD012008BDC077012080
:1021F000034B00225A609A60024A1A60704700BF7F
:10220000A0040020383303080121002208B5084645
:1022100008F094FA0A4B186028B90A4B28210A4A98
:102220000A482FF0C1FD00220421012008F050FBD4
:10223000074B186018B9074B2C21034AF0E708BD7B
:10224000B0040020BC350308053603083436030803
:10225000AC04002098360308024B4FF0FF31186899
:1022600008F0C4BAB0040020014B186808F0FABAAC
:10227000B0040020024B0021186808F0B7BA00BF74
:10228000B0040020FFF7F0BF0023034803491A46BB
:10229000006808F063BB00BFAC040020040000200D
:1022A00013B50023074C01A91A46206808F098FBD3
:1022B0004FF0FF33002201A9206808F091FB02B023
:1022C00010BD00BFAC04002003685B6C1847012000
:1022D000704703689B6A18470D4B82B01A6B42F433
:1022E00000021A631A6B02F400020192019A1A6941
:1022F00042F400021A611A6922F400021A61054BC5
:10230000054A1A614FF08062044B9A6002B0704730
:10231000003802402C030020A925000800E100E05D
:1023200040F2EF3070470000054B4FF080620360D1
:10233000044BC3F88820BFF34F8FBFF36F8F7047F4
:102340004C38030800E100E010B504464FF45A6130
:10235000FFF7EAFF20462EF0E0FD204610BD00000A
:1023600008B50A2809D8DFE800F006100E080808AA
:10237000081010101000022008BD054B8621054AE8
:1023800005482FF011FD0020F6E70120F4E700BF1B
:10239000DA360308F53603084037030838B50C462B
:1023A000887FFFF7DDFF174BA58AE28A586342EA70
:1023B000054221695A64628BD963521B1A642568ED
:1023C000082D0ED19A611A6158620F4A207F42EAA5
:1023D0000062DA61E2681A620C4A5961D9601A60D7
:1023E00038BD0022D8611A61E1680A0A4809C1F3C0
:1023F000C40102F4784200F4FC6002430A439A6389
:10240000034AECE700B002400900010001020200AB
:102410000102030008B50B280BD8DFE800F0061214
:10242000100A0A0A0A0808080808022008BD052040
:10243000FCE7054B6521054A05482FF0B5FC002057
:10244000F4E70120F2E700BFDA360308A2370308F9
:10245000403703082DE9F04191F81D800C464046B5
:10246000FFF7D8FFA77F05463846FFF7D3FF06469C
:102470003846FFF775FFA18A628B434B521A1A64E4
:102480009A61228B521A1A61E28A586342EA014227
:1024900021695A646268D963DA602068802828D08C
:1024A000227F0FD8202866D0402864D004281AD074
:1024B00045EA0265344BB84545F40035DD6160D02E
:1024C000324A44E0B0F5807F04D0B0F5007FEFD110
:1024D0002F4800E02F4840EA0262DA61E2681A629F
:1024E0005E62596132E045EA026242F40032DA612A
:1024F000F6E7A068021DDA62227F45EA026545F42C
:102500000035DD615E625961017841B1012921D058
:10251000214B4FF48871214A21482FF045FCDA699C
:10252000418822F47F42013922F0100242EA01225E
:102530000121DA61144BDA6942F02002DA61DA69CA
:102540009206FCD410229A600029B9D0154A1A606C
:10255000BDE8F081B2F1FF01DA69408822F47F42E0
:1025600018BF0121013822F0100242EA002242F095
:102570001002DA61DEE745EA0262034B42F4003200
:10258000B5E740F20122E2E700B00240010201009B
:10259000090002000A000200EC37030806380308AD
:1025A0004037030801020200024B1B6858680368A9
:1025B0005B691847C077012070B504460A4B0C30A0
:1025C00000262546602260602672667245F8203B30
:1025D000294618F0B7FC04F55A63EE6024359D4295
:1025E000FBD1204670BD00BF4C380308034B1A686E
:1025F000D207FCD423229A60704700BF00B002408B
:1026000030B5104C2568ED07FCD423250904FF2BB9
:10261000A56041F001014FF0020565636164E0636C
:102620000AD00949656241EA0363E361074B22620C
:102630006061E060236030BDE561039BA363044BF0
:10264000F8E700BF00B002400900010001000200ED
:10265000010003004069704790F844007047036B25
:1026600023B9C06A003818BF0120704701207047A5
:1026700080687047043010B50C460FC884E80F001E
:1026800010BD704708B5034A40F21221024B0348BF
:102690002FF08AFB943803086F550308EF380308BE
:1026A00010B5044648212EF038FC204610BD00002D
:1026B0002DE9F0431C46436BADF51F7D05460E46E4
:1026C0001746002B37D0002203A8DFF8A890CDE9E9
:1026D000013210F073FA4FF4F4725021249024A8C0
:1026E0000AF021FA3A46314624A80BF075F9012187
:1026F00024A80AF013FB022324A88DF8D8300AF08E
:10270000AEFBBDF898322B9ABDF89C629342A89F0D
:1027100028BF1346419A964203EB4308A7EB4307B1
:1027200028BF1646479B9E4209D824A80AF018FBEA
:1027300024A80AF045FA0DF51F7DBDE8F0830122BB
:1027400001A924A80AF0D4FB6B6B03EB08009842A4
:1027500001D83C44E6E759789A78C90009EA022290
:1027600001F4FC610A4313F8031B42EAD10224F886
:10277000022BECE700F8FFFF0A4A02600022C0E9E2
:102780000522C0E90722C0E90922C0E90B22C0E9FD
:102790000D12C0E90F2280F84420C0E90322C0E9ED
:1027A00001227047E43B030810B40C4611461A4658
:1027B000036B3BB1036C806BE41A20445DF8044B5F
:1027C0002FF0B6BDC06AF8E7036B10B573B1036CA8
:1027D000826BC91A5318525C98785C780004DB78D5
:1027E00040EA0420104340EA036010BDC36A585811
:1027F000FBE7036B43B1036CC91A836B5A18585C2F
:10280000527840EA02207047C36A585A7047000065
:1028100070B50446006B0D461646D8B1E36B934283
:1028200008D209230D4A65210D4884F844300D4B28
:102830002FF0BAFA0368DB689847206B3246A16B29
:1028400003681B69984710B90D2384F84430A06BC6
:10285000256470BDE06A0844FBE700BF70390308D7
:10286000EF3803085D3903082DE9F843436904464E
:102870002BB9234BAA21234A23482FF095FA08228B
:102880008169FFF7C5FFA16943F2300646F264375C
:1028900004312046FFF798FFA3691844A36A00F1AA
:1028A00008029A4206D3012300206361236AA361D0
:1028B000BDE8F883636909300822013320F0010183
:1028C00020466361A161FFF7A3FFD4F8189020466A
:1028D0004946FFF78EFF09F1020180462046FFF7C7
:1028E00088FF09F1040105462046FFF76DFFB0455A
:1028F000D2D1BD42D0D10028CED00120D8E700BF30
:10290000B2390308FB390308EF3803082DE9F04F0B
:102910000446ADF51F7D8A46164681690822984611
:10292000FFF776FFA7692046391DFFF74DFF07F136
:102930000801024605462046FFF76AFF636B07461B
:1029400033B93C4B40F2AB113B4A3C482FF02CFAD8
:10295000002203A8CDE9013210F030F94FF4F472EF
:102960005021249024A80AF0DEF82A46394624A8EB
:102970000BF032F8012124A80AF0D0F9022324A890
:102980008DF8D8300AF06BFABAF90250479BAB4287
:1029900029D3BAF900904FEA4808BAF804702B9B83
:1029A00008FB05664F44BAF80250DFF894B03FB216
:1029B0009F4228BF1F46BAF8063009EB490A1D445A
:1029C000419B2DB29D4228BF1D46479BAB4210D371
:1029D00024A80AF0C5F924A80AF0F2F801200DF5A0
:1029E0001F7DBDE8F08F012201A924A80AF080FA1A
:1029F000CCE7012201A924A80AF07AFA626B4946C1
:102A00005244B94202F1030201D34644DDE712F811
:102A1000020C12F8013CC0000BEA032300F4FC6036
:102A2000034312F8030C43EAD00326F811300131B6
:102A3000E7E700BF2E3A0308843A0308EF3803089B
:102A400000F8FFFF0129036838BF0121DB6A70B578
:102A50000D4604469847A84204D223682046DB6A04
:102A6000984705466B1EE6691022204606EB0316C2
:102A700006F10801FFF7CCFE06F110012046FFF732
:102A8000A3FE236A043B0344C4E9055370BD000060
:102A9000002148222DE9F0410446816180F844106C
:102AA000FFF7B6FEA6690423624A31462046FFF7C7
:102AB0007BFE40B10323604AF22184F844305F4B2F
:102AC0005F482FF071F906F1080104235D4A2046A2
:102AD000A161FFF769FE30B10423574AFA2184F857
:102AE0004430594BECE706F10C010423574A2046C9
:102AF000A161FFF759FE074638B105234E4A40F25F
:102B0000011184F84430524BDAE706F110012046F7
:102B1000FFF75AFE054620B94E4B40F20711464AD0
:102B2000CEE706F1140804234B4A20464146FFF73E
:102B30003BFE002849D0062384F844300423474A4A
:102B400006F118012046FFF72FFE00283FD007238B
:102B500084F844304544424F0C2220462946FFF772
:102B600057FE05F1080604233A4620463146FFF792
:102B70001BFE94F84430002848D0002B48D1A36AAB
:102B8000AB4249D805F10C0304352046A361294620
:102B9000FFF71AFE3044294660622046FFF714FE14
:102BA0000644042220463146FFF732FE04232D4A14
:102BB00031462046FFF7F8FD002838D10123E661B1
:102BC0006361A3692362BDE8F0810127B6E7002FA6
:102BD000C0D006F120012046FFF7F6FD4FF47A73CE
:102BE00006F13001B0FBF3F060602046FFF7ECFD2A
:102BF00006F14001A0602046FFF7E6FD06F1440122
:102C0000E0602046FFF7E0FD2061A3E7002BB9D08C
:102C10000A2384F84430D6E7291D2046FFF7D4FD67
:102C200085190C2220462946FFF7F2FD99E70B2370
:102C3000EFE700BFDE3A0308FC3A0308E33A030873
:102C4000EF380308293B03082E3B0308463B0308E3
:102C50004B3B0308613B03086D3B0308723B0308D1
:102C6000773B03087C3B0308C0E90A21002202638A
:102C7000FFF70EBF10B5002304460846E3620B6859
:102C800021639B689847A0622046BDE81040FFF78B
:102C9000FFBEF0B4069FBDF81050BDF8146032B10D
:102CA0002BB10495CDE90567F0BCFFF701BDF0BC81
:102CB000704700002DE9F04F9946436985B00446FE
:102CC0000F4690462BB9294B7721294A29482FF0E6
:102CD0006BF808228169FFF79BFDA6692046314603
:102CE000FFF787FDB11C83462046FFF782FD311DAB
:102CF00082462046FFF768FD06F10801A36A0546F3
:102D000042189A4226D243F230039B4517D146F22D
:102D100064339A4513D190B10246A1612046FFF772
:102D200077FD0E9B01462A462046CDF80080CDE96E
:102D300001933B46FFF7ADFF636901336361A3690C
:102D40002B4405B908330133626A23F0010393422F
:102D5000A36109D1012301206361236AA36180F08B
:102D6000010005B0BDE8F08F0020F8E7B239030894
:102D7000813B0308EF38030801207047402070476B
:102D800000EB81100830704700EB8110083070476D
:102D90000120704742F29450704742F2945303FB73
:102DA00001000830704742F2945303FB01000830E1
:102DB0007047012070471020704700EB0110083069
:102DC000704700EB011008307047084601F0DAB890
:102DD000034B10B50446036016F0FAFE204610BD02
:102DE0008C3C030810B50446FFF7F2FF482120464B
:102DF0002EF093F8204610BD034B10B50446036037
:102E000016F0E6FE204610BD583C030810B50446F7
:102E1000FFF7F2FF42F29C5120462EF07EF820464A
:102E200010BD0000034B10B50446036016F0D0FE41
:102E3000204610BD243C030810B50446FFF7F2FFFE
:102E4000182120462EF069F8204610BD094B10B518
:102E50000446036000F517500830FFF7B9FF04F18E
:102E60002C00FFF7C9FF04F11400FFF7DBFF204639
:102E700010BD00BFC03C030808B50248FFF7E6FFDD
:102E800008BD00BF8013002010B50446FFF7DEFF29
:102E900042F2707120462EF040F8204610BD00002E
:102EA0002DE9F34100F034FD0024054600F034FD27
:102EB000234601462246284600941FF05BFE274B1E
:102EC000274A2046274D1A6001F036FC264B274A38
:102ED00027489A601FF0B6FD2B68BFF35B8FDB07B6
:102EE00035D428462EF01BF888B3224C224B04F12F
:102EF000140004F12C08214F00F51856236060607F
:102F0000C4F80880E760266116F064FE1C4B40465A
:102F1000636116F05FFE1B4B3846E36216F05AFE03
:102F200004F50053184A03F5C260C3F8C82503F03E
:102F3000B9FB2246311F304603F0AAFB304601F0B0
:102F400021F812482EF04EFF28462DF0F4FF1048CD
:102F500002B0BDE8F041FFF76DB800BF2478012052
:102F6000300500207C13002050050020340500208F
:102F70000800002080130020C03C030848390020CE
:102F8000243C0308583C03088C3C0308792E0008B5
:102F9000B404002070470000014817F02AB900BFB0
:102FA000B404002070B5244E244B254C3046254DEA
:102FB0002360FFF701FB284624F0BCF822481DF0EF
:102FC00077FE224B00224FF4807121481A8683F845
:102FD00058205A6683F870205A67DC60C3E91212E1
:102FE0001C49C3E91A121C4999671C490B604FF42C
:102FF000F07101801A4801804FF488711948C3E9C3
:103000000422C3E90622C3E90822C3E90A22C3E96C
:103010000E22C3E91022C3E91422C3E91722C3E92F
:1030200001650180104883F8342001800F490A703F
:103030000F4A1A6070BD00BFD80500206033030836
:10304000781300205005002034050020B40400202F
:10305000B47701200100000100000101C0770120C8
:10306000BA770120B6770120BC770120B87701201C
:10307000EC3403080148FFF757B900BFD80500201A
:103080000020704781807047C18070470181704780
:10309000418170477047704770477047704710B460
:1030A000C4880368121B84885B6D091B12B25DF82B
:1030B000044B09B218474FF6FF7383814FF0FF337B
:1030C00003621368C36110607047002070478B88EB
:1030D000838001207047704780F82610704790F871
:1030E00026007047002210B5B1F90840B1F90A1066
:1030F000028042808480C18010BD00220280428014
:103100008280C28070470177704780ED080A70475F
:1031100080F82410704780F8251070470120704710
:10312000983070478C30704784307047704700008B
:10313000034B902283F85A2383F85823704700BF2B
:1031400000E100E0094A0A49D3680A48C3F30A03C8
:10315000013B9BB20B801169C1F30A010139018067
:103160001364536B43F001035363704700680140DD
:10317000F23A0020F03A0020014BD3F8AC0070473F
:1031800000680140024B0122C3F8AC105A6270473C
:1031900000680140124A5369DB0370B51ED5002355
:1031A000C2F88430BFF34F8FD2F8803043F6E0741A
:1031B000C3F3C900C3F34E335B0103EA04060146BF
:1031C00046EA81750139C2F87452F9D2203B13F1F5
:1031D000200FF2D1BFF34F8FBFF36F8F70BD00BFD1
:1031E00000ED00E07047704770473823002201FB74
:1031F0000333C25490F838300BB9036C83647047C2
:10320000704780F84C10704710B504462C212DF003
:1032100084FE204610BD10B5044658212DF07DFED9
:10322000204610BD10B50446BC212DF076FE204688
:1032300010BD000038B5044616F0C7FF23685D6E68
:103240001CF008FC01462046A8472368084A20468F
:10325000D3F888500023A2F57F31A847054B064AD2
:103260005A60064A1A649A644FF4FF225A6438BDC1
:1032700000F807C0B43B00200C3C002000F40BC059
:1032800016F08ABF16F094BF16F050BF17F0BFB803
:1032900090F8252012B103685B6918477047000059
:1032A00008B531B1044B40F29711044A04482EF09E
:1032B0007BFD90F8390008BDCC3C0308E03C0308D6
:1032C0006D3E030810B531B1064B40F29111064A2C
:1032D00006482EF069FD406811460368BDE81040BD
:1032E0001B6B1847CC3C0308AF3E03086D3E030838
:1032F00008B529B1034B7A21034A04482EF054FD46
:10330000006908BDCC3C0308604003086D3E03081B
:1033100008B529B1054B8321054A06482EF044FD26
:1033200041618160C0E9063208BD00BFCC3C0308A2
:10333000184203086D3E030810B5044629B1274B17
:10334000A421274A27482EF02FFD052A34D8DFE88C
:1033500002F003292F34393E406803681B699847FF
:1033600050B34FF0FF31606D07F08CF9002301225C
:1033700094F83E1084F83B3084F83920A3606361F0
:1033800001B1226284F83E306362E36A2BB9012303
:10339000206D84F83A3007F065FA606DBDE81040A2
:1033A00007F0A0B9002380F8393084F83E3003E0FC
:1033B000036200238360436110BD036200238360C6
:1033C0004361F2E7002380F839300123EDE7003B49
:1033D00018BF012380F83D30EEE700BFCC3C030866
:1033E000D74303086D3E030890F825201AB190F8E2
:1033F000242002B11860704770B50446164629B102
:10340000314BE721314A32482EF0CEFC90F839306A
:1034100033B1304B1B6893F86B204369134443610D
:10342000E36A002B4DD0E169D4E905325343A26829
:103430004A43934220D2236A002B42D04FF0FF31FF
:10344000606D07F01FF9236A0BB10023E362E36AA2
:10345000FBB90125606D07F045F994F839300BB9D7
:10346000236A3BB1E36A2BB90123206D84F83A301B
:1034700007F0F8F9284670BD94F84C000028DDD01C
:103480009B1AB3FBF1F2994298BF02F1FF326262DC
:10349000D4E7002294F83C50A3623046E262E2682E
:1034A0002261A2680132A260336333685B69984786
:1034B000002DCED194F83D30002BCBD184F839507B
:1034C000C8E70125C9E700BFCC3C0308AE450308A7
:1034D0006D3E0308C0770120034B4FF080629A6075
:1034E0004FF080729A60704700E100E0084B4FF0A7
:1034F0008062C3F88820BFF34F8FBFF36F8F4FF008
:103500008072C3F88820BFF34F8FBFF36F8F70476F
:1035100000E100E038B5034690F8380038BB0122DE
:103520009860D8609A634FF4807258619A874FF41C
:10353000F0729861D861186258629862D862186314
:10354000586383F83E00CA864FF4887281F83400CD
:103550000A8708639A6C186102F5FF24D3E91015F5
:1035600029448C420AD9084B5821084A03E0084BE9
:1035700040F2F511074A08482EF016FC1A6302F5CE
:103580007F329C645A6338BD0C4903084C490308D8
:1035900052470308824703086D3E0308002370B5B5
:1035A000124E05468380124B0360336893F858200F
:1035B0000AB1D86C00B998680368DB6A9847336829
:1035C000B0FA80F4D86C640930B10368DB6A9847BC
:1035D000002808BF44F001042CB9064B2C21064AF0
:1035E00006482EF0E1FB284670BD00BFC0770120E1
:1035F000F44B0308F24A0308504B0308894B0308B5
:1036000070B5244E3568BFF35B8F15F001053FD1CF
:1036100030462DF084FC00283AD01F4C1F4B04F19B
:1036200034002561E584A562A585C4E90035C4E9B7
:1036300002551DF09CFD04F1580019F083F8184B59
:103640002046A365174B40F8843BFFF7A7FF164BB6
:103650001648C4F884302433C4F89050C4F88C3031
:103660006423C4F89C50C4F8A850C4E9283500234A
:10367000C4F8AC30C4F8B030C4F8B430C4F8B830D2
:103680000B4BC4F898302EF0ADFB30462DF053FCB8
:10369000014870BDF43A0020F83A00207482030813
:1036A000144C03088C4C0308288203082D310008B1
:1036B0000882030810B5144C236823B3134B144A33
:1036C0001B6C11888B4213D1124B198805F0E8F856
:1036D000226892F86A30013382F86A30FEF7D4FD2E
:1036E000206817F0BFFA0020BDE81040FEF7D2BBFB
:1036F00005F0D6F8206803681B6A98470020BDE8EB
:103700001040FEF7F7BB10BDC077012000680140F4
:10371000F23A0020F03A00202DE9F74304464FF436
:10372000707894F83A304FF0FF31002B31D0606D53
:1037300006F0A8FF276BA36ABB4200D1676B266A1D
:10374000656856B32B68314628465B6A9847002364
:10375000236284F83B30606D06F0C4FF2B684FF4A1
:10376000F0723946CDF8008028465E694FF48873C0
:10377000B0474FF0FF310646606D06F083FF94F8C6
:103780003B30E3B1002384F83B30606D06F0AAFFC4
:10379000C7E7206D07F02AF8C3E7636A002BDAD089
:1037A0002B682846D3E909939847616A0144284663
:1037B000C847A368626A66621344A360CBE7E76206
:1037C0005EB12B6828469B6A984701380023E06069
:1037D00084F83C6084F83A30D7E70120F6E700002F
:1037E000014808B5FFF798FFB43B002003680422A6
:1037F00070B504465E6A00230D46B0474FF0FF31B6
:10380000606D06F03FFF382303FB0542D16A09B122
:103810000021D16203FB0545012385F83B300023DD
:1038200085F83930606DBDE8704006F05BBF38B593
:1038300000EB810304460D46114658680368DB68B7
:10384000984729462046FFF7D1FF38BD70B50D4691
:103850001146044600EB85025068026896681A46D5
:10386000B04729462046FFF7C1FF70BD38B516495D
:1038700000251648FEF780FF154C164B01202A46FE
:10388000294623604FF48073A564A38784F84C0015
:1038900084F83E50C4E91055C4E91455C4E90155F3
:1038A000C4E90355C4E90555C4E90755C4E90955F8
:1038B000C4E90B55C4E90D5506F040FF20652846C4
:1038C00006F09EFE606538BD543C00200C3C002094
:1038D000B43B0020D84C0308704710B504460421BF
:1038E0002DF01BFB204610BD012908B506D002298A
:1038F00008D059B900F05EFF006808BD00F05AFF1B
:103900004068FAE700F056FF8068F6E70020F4E729
:1039100000487047244D03080720704713B5002462
:1039200051B1036801AA01948DF803409C680DF120
:103930000303A04702B010BD0846FBE7C0897047EB
:10394000008A7047C088704780887047807A00F08E
:103950007F007047807AC0097047002070470000E0
:103960009FED010A704700BF0000000070477047DC
:1039700000F598730868496803C37047704770473B
:103980004160704770470000064BC0F84801C0F81E
:103990004C310023C0F8503100F5A273C0F840311B
:1039A000704700BFF93B000801230372704770475E
:1039B00070477047704710B441680346C2689B68FF
:1039C000541001EB6200D20748BF0A595DF8044B5E
:1039D00048BFD35818470346406830B19A681AB9AF
:1039E000D86800F0010070470120704710B5044608
:1039F0000C212DF092FA204610BD10B5044610217E
:103A00002DF08BFA204610BD10B504464FF4AE7170
:103A10002DF083FA204610BD10B5044640212DF04C
:103A20007CFA204610BD10B5044640212DF075FAF1
:103A3000204610BD10B51CF00DF80368BDE810401D
:103A4000DB6B1847054B01461B782BB1406818B15A
:103A500003680C315B6E1847704700BFBF770120C9
:103A6000054B01461B782BB1406818B103680C3137
:103A70005B6E1847704700BFBF770120037A70B5AF
:103A80000546BBB940680368DB69984704463CB902
:103A9000686805F10C010368BDE870401B6E1847AB
:103AA000A18820466B8FC91A236809B21B6B9847FF
:103AB000A469ECE770BD037A70B50546BBB94068F0
:103AC0000368DB69984704463CB9686805F10C0156
:103AD0000368BDE870401B6E1847A18820466B8FB5
:103AE000C91A236809B21B6B9847A469ECE770BD3B
:103AF00010B50446D0F8400158B10368DB68984718
:103B000038B1D4F8400103689B6898470023C4F893
:103B1000403110BD70B5044690F83900013094F87A
:103B20003830C0B2984284F8390005D90123237295
:103B3000002384F8393070BDB4F93A2000211EF01A
:103B40004DF8C30706D500284FF6FF73C8BF012301
:103B5000184400B2238AC01AA08760680368DB6932
:103B6000984705462DB960680368BDE870405B69F9
:103B70001847A9882846A38F19442B6809B21B6BE4
:103B80009847AD69EEE770B5044690F8390001300A
:103B900094F83830C0B2984284F8390005D901232E
:103BA0002372002384F8393070BDB4F93A20002123
:103BB0001EF014F8C30706D500284FF6FF73C8BFE0
:103BC0000123184400B2238AC01AA08760680368E2
:103BD000DB69984705462DB960680368BDE8704009
:103BE0005B691847A9882846A38F19442B6809B236
:103BF0001B6B9847AD69EEE72DE9F14FD0E9556AA7
:103C00000746B06803681B6A984742F2935398428C
:103C100005D8444BA321444A44482EF0C5F87068A7
:103C200003681B6A98470F2803D8414BA4213E4ADA
:103C3000F2E7F06803681B6A98470B2803D83D4BEE
:103C4000A521394AE8E7DFF8F4901BF003FF0430C0
:103C50001BF025FFD9F8000010B10368DB68984716
:103C6000D9F8000010B103681B689847DFF8D080CE
:103C7000D8F8000010B103685B699847D7F83C0199
:103C800010B103685B689847D8F8000010B103686A
:103C90001B689847D7F83C0110B103689B689847A8
:103CA000F06800214FF0000B03685B6A9847224BD5
:103CB0000446C0F804B080F808B059460360B06804
:103CC00003685B6A9847054602F0E2FD7068594652
:103CD00003685B6A98470646294602F0B7FD331D24
:103CE000C7F83C612846C9F80040C8F80050CAF837
:103CF00000302B68C6F808A0DB68EE63984733688D
:103D000030461B689847214628461DF061FF23680E
:103D100020461B699847236820465B6901B0BDE8CF
:103D2000F04F1847B04D03083E4E03080A4F0308F2
:103D3000514F0308F44F03089C54030808780120EE
:103D4000047801202DE9F0411D460368044616461B
:103D50001B6BBDF9187098472368314620465B6B92
:103D600098472368294620469B6B98472368394625
:103D70002046DB6BBDE8F041184700002DE9F74F06
:103D8000D0E9556A0746B06803681B6A984742F253
:103D90009353984205D8544BA321544A54482EF0CB
:103DA00003F8706803681B6A98470F2803D8514BC3
:103DB000A4214E4AF2E7F06803681B6A98473F283F
:103DC00003D84D4BA521494AE8E7DFF83C911BF0A9
:103DD00041FE04301BF063FED9F8000010B1036807
:103DE000DB689847D9F8000010B103681B68984752
:103DF000DFF81881D8F8000010B103685B699847B4
:103E0000D7F83C0110B103685B689847D8F8000008
:103E100010B103681B689847D7F83C0110B10368DC
:103E20009B689847F068002103685B6A9847002206
:103E3000324B054642600446027245F80C3B284668
:103E400019F008FE1423002223872D4BA2871B782C
:103E5000002B35D101232372B068002103685B6A0F
:103E60009847054602F014FD7068002103685B6AFC
:103E700098470646294602F0E9FC331DC7F83C6125
:103E80002846C9F80040C8F80050CAF800302B682E
:103E9000C6F808A0DB68EE639847336830461B68B5
:103EA0009847214628461DF093FE236820461B694B
:103EB0009847236820465B6903B0BDE8F04F184778
:103EC000104B1146DFF848B02846B3F90030009394
:103ED000BBF90030FFF736FF284619F036FDBBF876
:103EE00000306387B8E700BFB04D03089750030860
:103EF0000A4F0308514F0308F44F0308E454030822
:103F0000BF770120B67701200878012004780120CE
:103F1000B4770120044B1B6893F858200AB1D86C81
:103F200000B99868704700BFC077012070B504469B
:103F300016460D461BF054FE0E4B00211C600E4B26
:103F400023600E4BC4E951310D4B1868C4E953117D
:103F50000368C4E94F119B68C4E955659847FFF7AA
:103F6000D9FF24F018FFFFF7D5FF24F08FFF20467C
:103F700070BD00BF14780120485403083054030872
:103F8000C0770120064BC0F84801C0F84C3100232F
:103F9000C0F8503100F5A273C0F84031704700BF3F
:103FA000F93B0008064BC0F84801C0F84C3100232B
:103FB000C0F8503100F5A273C0F84031704700BF1F
:103FC0007D3D0008064BC0F84801C0F84C31002385
:103FD000C0F8503100F5A273C0F84031704700BFFF
:103FE00009430008064BC0F84801C0F84C310023D3
:103FF000C0F8503100F5A273C0F84031704700BFDF
:10400000D1410008064BC0F84801C0F84C310023EC
:10401000C0F8503100F5A273C0F84031704700BFBE
:104020009940000803685B6A18470000F7B5164B13
:1040300000260546044646600F46067245F80C3BCE
:10404000284619F007FD114B84F838701B7884F866
:104050003960A68723B901232372204603B0F0BD3F
:104060000B4B32460B4F3146B3F9003028460093D4
:10407000B7F90030FFF766FE284619F066FC3B886A
:104080005B426387E9E700BFC0540308BF770120A4
:10409000B6770120B47701202DE9F047D0E9556AC1
:1040A0000746B06803681B6A9847B0F5045F05D2FD
:1040B000404BA321404A41482DF076FE70680368CA
:1040C0001B6A98470F2803D83D4BA4213A4AF2E7D0
:1040D000F06803681B6A98473F2803D8394BA5212D
:1040E000354AE8E7DFF8E0901BF0B4FC04301BF041
:1040F000D6FCD9F8000010B10368DB689847D9F8FE
:10410000000010B103681B689847DFF8C080D8F83A
:10411000000010B103685B699847D7F83C0110B103
:1041200003685B689847D8F8000010B103681B6803
:104130009847D7F83C0110B103689B689847002165
:10414000F068FFF76FFF14210446FFF76FFFB068B8
:10415000002103685B6A9847054602F049FB7068D6
:10416000002103685B6A98470646294602F01EFB59
:10417000331DC7F83C612846C9F80040C8F8005014
:10418000CAF800302B68C6F808A0DB68EE639847D1
:10419000336830461B689847214628461DF018FDB5
:1041A000236820461B699847236820465B69BDE861
:1041B000F0471847B04D0308765103080A4F03082B
:1041C000514F0308F44F03080878012004780120B8
:1041D0002DE9F047D0E9556A0746B06803681B6AC5
:1041E0009847B0F5045F05D2404BA321404A4148AF
:1041F0002DF0DAFD706803681B6A98470F2803D812
:104200003D4BA4213A4AF2E7F06803681B6A9847DD
:104210003F2803D8394BA521354AE8E7DFF8E0907D
:104220001BF018FC04301BF03AFCD9F8000010B168
:104230000368DB689847D9F8000010B103681B6871
:104240009847DFF8C080D8F8000010B103685B69B8
:104250009847D7F83C0110B103685B689847D8F8D5
:10426000000010B103681B689847D7F83C0110B1F3
:1042700003689B6898470021F068FFF7D3FE14217C
:104280000446FFF7D3FEB068002103685B6A9847D5
:10429000054602F063FA7068002103685B6A98477C
:1042A0000646294602F038FA331DC7F83C61284615
:1042B000C9F80040C8F80050CAF800302B68C6F8AA
:1042C00008A0DB68EE639847336830461B68984760
:1042D000214628461DF07CFC236820461B69984730
:1042E000236820465B69BDE8F0471847B04D0308D6
:1042F0005D5203080A4F0308514F0308F44F0308A7
:1043000008780120047801202DE9F047D0E9556AAA
:104310000746B06803681B6A984742F20743984211
:1043200005D8414BA321414A41482DF03DFD70681D
:1043300003681B6A98470F2803D83E4BA4213B4AC9
:10434000F2E7F06803681B6A98473F2803D83A4BA6
:10435000A521364AE8E7DFF8E4901BF07BFB043048
:104360001BF09DFBD9F8000010B10368DB6898478B
:10437000D9F8000010B103681B689847DFF8C080C7
:10438000D8F8000010B103685B699847D7F83C0182
:1043900010B103685B689847D8F8000010B1036853
:1043A0001B689847D7F83C0110B103689B68984791
:1043B0000021F068FFF736FE14210446FFF736FEB1
:1043C000B068002103685B6A9847054602F0B8FAB6
:1043D0007068002103685B6A98470646294602F028
:1043E0008DFA331DC7F83C612846C9F80040C8F86B
:1043F0000050CAF800302B68C6F808A0DB68EE63EE
:104400009847336830461B689847214628461DF078
:10441000DFFB236820461B699847236820465B69B9
:10442000BDE8F047184700BFB04D030844530308E8
:104430000A4F0308514F0308F44F0308087801207E
:1044400004780120406A7047806A704770478B8803
:10445000C069DB0A0A6850F823001044704710B5A1
:104460000446BAB1107B68B1537BD27A1B0203F4C5
:10447000E0631A43236A03EB82031A888A4202D15B
:1044800093F9020010BD05D80138043380B200282A
:10449000F3D1F7E70020F5E710B504462C212CF006
:1044A0003CFD204610BD000030B58BB00446BDF881
:1044B00060500895BDF85C5007959DF850500695E2
:1044C0009DF84C5005959DF8485004959DF8445032
:1044D00003959DF8405002959DF83C500195BDF81C
:1044E000385000951CF000FF064B20462360159BBA
:1044F000E361169B2362199B63621A9BA3620BB054
:1045000030BD00BF085503087047000030B5164D98
:104510008FB02C68BFF35B8F14F0010420D12846C4
:104520002CF0FDFCE0B13F23012210490993104B10
:1045300010480893104B0A940594CDE906430423D0
:10454000CDE903320A23CDE90B440093CDE90144C0
:10455000FFF7AAFF09482DF045FC28462CF0EBFC9C
:1045600004480FB030BD00BFD4430020088802903B
:1045700044910308D84300205091030809450008DE
:104580007047000030B5164D8FB02C68BFF35B8FBD
:1045900014F0010420D128462CF0C1FCE0B13F23E7
:1045A000012210490993104B10480893104B0A94AC
:1045B0000594CDE906430423CDE903321423CDE964
:1045C0000B440093CDE90144FFF76EFF09482DF03D
:1045D00009FC28462CF0AFFC04480FB030BD00BFEA
:1045E00004440020188802904891030808440020E1
:1045F00054910308814500087047000030B5164DFE
:104600008FB02C68BFF35B8F14F0010420D12846D3
:104610002CF085FCE0B13F23012210490993104B97
:1046200010480893104B0A940594CDE906430423DF
:10463000CDE903322823CDE90B440093CDE90144B1
:10464000FFF732FF09482DF0CDFB28462CF073FC14
:1046500004480FB030BD00BF3444002028880290C9
:104660004C9103083844002058910308F94500088C
:1046700000207047002070470EB403B503AB002143
:1046800053F8042B01931CF033F902B05DF804EBEE
:1046900003B070470CB407B504AB53F8042B019377
:1046A0001CF026F903B05DF804EB02B0704700007F
:1046B000436C10B5044673B3038F2BB9184BC52157
:1046C000184A19482DF070FBC38E00EB43035B8C36
:1046D0000BB31DF07BFF238F012B03D8134BCB2192
:1046E000134AEEE7E28E40F63F10531C9BB2092BB3
:1046F000194688BFA3F10A0104EB4101498C8142AC
:1047000009D10A2B04EB420228BF0023508C04EB92
:104710004303588451842046BDE810401DF058BE24
:1047200068550308715503081C56030866560308AC
:10473000745603081DF015BE38B518BB124B13484C
:104740001C681349B4B122682244026062682244A2
:104750000A60A26814440F4B00221A8000F02AF865
:10476000054600F025F80C4B1C600C4B1D600C4BF3
:10477000188007E00B4B03600B4B0B600B4B1C6866
:10478000002CE8D138BD00BF7044002068440020F0
:10479000644400206C440020187801202078012017
:1047A0001C7801203C880290388802904088029052
:1047B00000207047004870477444002010B5054C35
:1047C000FFF7E0FE2060FFF719FF6060FFF79EFE35
:1047D000A06010BD7444002010B5002404600C607B
:1047E00014601C6010BD806A704770477047704746
:1047F0007047704780F82C10704710B40368046B42
:10480000D3F8A430624361435DF8044B1847D0ED00
:104810000C7A0368F8EEE77A10B420EE270AD3F892
:10482000A440B5EEC00AF1EE10FA1ADBB6EE007A3B
:1048300030EE070ABDEEC07A17EE101A60EEA70A36
:10484000F5EEC00AF1EE10FA1EDBF6EE007A70EE1D
:10485000A70AFDEEE07A17EE902A23465DF8044B96
:104860001847BDEEC07AF8EEC76A17EE103A013B62
:1048700030EE660AF7EE086A30EE260ABDEEC00A90
:1048800010EE101A1944D9E7FDEEE07AB8EEE77A97
:1048900017EE903A013B70EEC70AB7EE087A70EE59
:1048A000870AFDEEE00A10EE902A1A44D5E710B40C
:1048B0000368046BD3F8B03062435DF8044B1847CB
:1048C000D0ED0C7A0368F8EEE77A10B427EE800A90
:1048D000D3F8B040B5EEC00AF1EE10FA0BDBF6EEFD
:1048E000007A30EE270AFDEEC07A17EE902A2346B2
:1048F0005DF8044B1847FDEEC07AB8EEE77A17EE84
:10490000903A013B30EE470AB7EE087A30EE070ADC
:10491000BDEEC00A10EE102A1A44E8E710B403688E
:10492000446BD3F8BC30624361435DF8044B1847D5
:10493000D0ED0D7A0368F8EEE77A10B420EE270A7E
:10494000D3F8BC40B5EEC00AF1EE10FA1ADBB6EEB1
:10495000007A30EE070ABDEEC07A17EE101A60EE4C
:10496000A70AF5EEC00AF1EE10FA1EDBF6EE007AA9
:1049700070EEA70AFDEEE07A17EE902A23465DF866
:10498000044B1847BDEEC07AF8EEC76A17EE103A2E
:10499000013B30EE660AF7EE086A30EE260ABDEEFD
:1049A000C00A10EE101A1944D9E7FDEEE07AB8EE0D
:1049B000E77A17EE903A013B70EEC70AB7EE087A35
:1049C00070EE870AFDEEE00A10EE902A1A44D5E751
:1049D00010B40368446BD3F8C03062435DF8044BF5
:1049E0001847D0ED0D7A0368F8EEE77A10B427EE99
:1049F000800AD3F8C040B5EEC00AF1EE10FA0BDB26
:104A0000F6EE007A30EE270AFDEEC07A17EE902A15
:104A100023465DF8044B1847FDEEC07AB8EEE77AFE
:104A200017EE903A013B30EE470AB7EE087A30EEC7
:104A3000070ABDEEC00A10EE102A1A44E8E7D0F8C3
:104A40002C31026B002B07DB02EB430090FBF2F0F2
:104A500000EBD070401070476FF0010101FB0320A4
:104A6000013890FBF2F000EBD070401040427047EC
:104A7000D0ED4B7A90ED0C0AF8EEE77AB8EEC00A6A
:104A800087EE800A7047D0F82C017047D0F830319B
:104A9000026B002B07DB02EB430090FBF2F000EB14
:104AA000D070401070476FF0010101FB0320013806
:104AB00090FBF2F000EBD070401040427047D0ED18
:104AC0004C7A90ED0C0AF8EEE77AB8EEC00A87EE61
:104AD000800A7047D0F830017047D0F83431426B0B
:104AE000002B07DB02EB430090FBF2F000EBD070F1
:104AF000401070476FF0010101FB0320013890FB6B
:104B0000F2F000EBD070401040427047D0ED4D7A8B
:104B100090ED0D0AF8EEE77AB8EEC00A87EE800A4B
:104B20007047D0F834017047D0F83831426B002B11
:104B300007DB02EB430090FBF2F000EBD07040107B
:104B400070476FF0010101FB0320013890FBF2F088
:104B500000EBD070401040427047D0ED4E7A90ED9F
:104B60000D0AF8EEE77AB8EEC00A87EE800A7047C1
:104B7000D0F838017047036870B50446D3F8883020
:104B80000D46164698472368324629462046D3F8F4
:104B90009030BDE8704018470368D3F89430184748
:104BA0000368D3F8D43018470368D3F8E0301847C7
:104BB0000368002A10B4D3F8A430046B0EDB04EBB6
:104BC000420292FBF4F101EBD1714910B0F91E21C0
:104BD0005DF8044B013A0A44494218476FF001015D
:104BE00001FB0241013991FBF4F101EBD171491054
:104BF0004942EBE70368D3F83C311847026B03687E
:104C00005143D3F8483118470368D3F84431184763
:104C1000D0ED0C7A0368F8EEE77AD3F8482127EE56
:104C2000800AB5EEC00AF1EE10FA08DBF6EE007A63
:104C300030EE270AFDEEC07A17EE901A1047FDEE0F
:104C4000C07AB8EEE77A17EE903A013B30EE470AA9
:104C5000B7EE087A30EE070ABDEEC00A10EE101A61
:104C60001944EBE7C0F83C1170470368D3F85031A2
:104C70001847036810B5D3F85C31044698470028FC
:104C8000236B07DB03EB400090FBF3F000EBD070ED
:104C9000401010BD6FF0010202FB0030013890FBA4
:104CA000F3F000EBD07040104042F2E70368D3F815
:104CB00058311847036810B50446D3F85C3198475B
:104CC00007EE900A94ED0C0AF8EEE77AB8EEC00A07
:104CD00087EE800A10BDD0F83C017047026B036874
:104CE0005143D3F868311847D0ED0C7A0368F8EED9
:104CF000E77AD3F8682127EE800AB5EEC00AF1EE14
:104D000010FA08DBF6EE007A30EE270AFDEEC07AE4
:104D100017EE901A1047FDEEC07AB8EEE77A17EE5C
:104D2000903A013B30EE470AB7EE087A30EE070AB8
:104D3000BDEEC00A10EE101A1944EBE7C0F840119E
:104D40007047036810B5D3F87431044698470028BB
:104D5000236B07DB03EB400090FBF3F000EBD0701C
:104D6000401010BD6FF0010202FB0030013890FBD3
:104D7000F3F000EBD07040104042F2E7036810B54A
:104D80000446D3F87431984707EE900A94ED0C0A64
:104D9000F8EEE77AB8EEC00A87EE800A10BDD0F8C8
:104DA0004001704703680029026BD3F8843110B5C5
:104DB00004460EDB02EB410191FBF2F101EBD171F4
:104DC000491009B220469847D4E94F2302FB00302E
:104DD00010BD6FF0010000FB0121013991FBF2F1E0
:104DE00001EBD17149104942EBE7006B7047406B12
:104DF00070470368D3F8483118470368D3F85C312B
:104E00001847026B03685143D3F8143118470368FD
:104E100070B5D3F818510446D0F84461D3F8803106
:104E200098472B4656F820102046BDE8704018479A
:104E300003460846B3F91C21B3F91E11914207DB62
:104E4000B3F94C31191891FBF2F302FB131108B2BC
:104E5000704748017047C1627047C06A70470120BF
:104E6000704770477047C06B18B10368D3F8803043
:104E700018477047B2F81A1130B5B2F91441B2F9B7
:104E800040502144B2F842204480521A00218580CB
:104E90000180C28030BD10B54280BDF90840BDF927
:104EA0000C2004808280C38010BD0B680846D3F8B4
:104EB000D43018470B680846D3F8E0301847B1F9EA
:104EC00014017047B1F81431B1F81A21B1F8420059
:104ED0001344C01A00B27047B1F916017047B1F817
:104EE0001631B1F81821B1F840001344C01A00B2CD
:104EF00070470B6808461146D3F81431184730B58F
:104F0000B2F91651B2F81841B2F840102C44B2F977
:104F100042200580091B0024C2804480818030BD6E
:104F200002808380BDF90020BDF904304280C38037
:104F300070470B680846D3F8EC3018470B680846F2
:104F4000D3F8F8301847B1F916017047B1F81631A7
:104F5000B1F81821B1F840001344C01A00B27047EC
:104F6000B1F914017047B1F81431B1F81A21B1F850
:104F700042001344C01A00B270470B68084611463D
:104F8000D3F818311847704770477047704770471B
:104F90007047704730B444680346C2689B68551038
:104FA00004EB6200D20748BF625930BC48BFD358F7
:104FB00018470346406830B19A681AB9D86800F0BB
:104FC000010070470120704790F82D3080F8903034
:104FD00080F85C30704790F82D3080F85C30704776
:104FE00010B5044664212BF098FF204610BD10B583
:104FF000044694212BF091FF204610BD10B50446C5
:1050000040212BF08AFF204610BD10B504464021F8
:105010002BF083FF204610BD10B504464FF43871C5
:105020002BF07BFF204610BD10B5044610212BF05D
:1050300074FF204610BD38B503460846D3E90C542A
:105040000B68D3F88C309847294602462046BDE8C5
:10505000384017F07DBF38B503460846D3E90C54F5
:105060000B68D3F894309847294602462046BDE89D
:10507000384017F06DBF0146343091F82C3013B131
:10508000623118F0D9BD6031FBE710B504466830D5
:1050900094F82C303BB104F1660118F0CDFD2046A8
:1050A000FFF7E9FF10BD04F16401F6E7034B10B50B
:1050B0000446036019F0C6FC204610BDD45C03080A
:1050C000064B10B50446036019F0BCFC4FF40451C4
:1050D00020462BF022FF204610BD00BFD45C030801
:1050E00008B590F82C300BB1FEF7D2F808BD10B51A
:1050F0000446006B50B10368DB68984730B1206B01
:1051000021460368BDE810409B68184710BD0000A9
:105110000A1E10B503DBB0F91E41944206DC084BB1
:1051200040F23961074A08482CF03EFE0368D0F887
:105130004441D3F88031984754F8200010BD00BF97
:105140004657030869570308B85703080B1E10B5E4
:10515000044603DBB0F91E219A4206DC074B40F2FD
:105160003361074A07482CF01FFE0368D3F88431E7
:105170009847D4E94F2302FB003010BD465703087F
:1051800015580308B85703080B7970B504460D4647
:1051900090F82C600BB916B170BD002EFCD0B3FA9C
:1051A00083F320465B0984F82C302368D3F88C30D5
:1051B0009847236820465B699847002EECD02B79EE
:1051C000012BE9D123682046D3F88830BDE8704030
:1051D000184700F23C40884208B505D11AF03AFC65
:1051E000BDE80840FEF7DEBE08BD0000074A0260C9
:1051F0000022C0E90122C0E90322C0E90522C0E97A
:1052000007224FF480728284704700BF8C880308A5
:10521000036870B504461B6B154698472368204603
:1052200029465B6BBDE8704018470B882DE9F041BB
:10523000A0F86430044613889046B0F90850A0F8EE
:10524000663010461DF0AAFCB4F90A30074605EB9B
:10525000D57503EBD3734046C5F34F0507EBD777FE
:10526000C3F34F061DF0CEFC00EBD070A5EB670139
:10527000A6EB600204F1680009B212B2FFF7C8FFA2
:1052800023682046D3F88C30BDE8F0411847036806
:1052900070B504469B6B15469847236820462946FF
:1052A000DB6BBDE8704018470B8870B50546A0F869
:1052B00060301388044625F8623F28461DF06EFCD6
:1052C000064628461DF09EFC314602462046FFF762
:1052D000DEFF23682046D3F88C30BDE870401847C5
:1052E00010B50446262200212DF01AF82046FFF7BB
:1052F0007DFF044B20462360FF2384F826300023E3
:10530000A36210BDEC86030837B501AB15461CF04F
:10531000E9F800282A4601994FEA40144FF020008E
:1053200004DB1CF0FEF8204403B030BD1CF0F9F89B
:10533000201AF9E770B5B0F81A310E46B0F91441E9
:10534000B0F842502344ED1A2DB22C44691ED0E926
:105350004D32013CD21AF01AFFF7D6FFC0EB4410D1
:1053600070BD38B504460D46B4F81631B4F81811BE
:105370000B44B4F84010C91AD0E94B0209B2121A12
:10538000281A0139FFF7C0FFB4F9163100EB4310BA
:1053900038BD000038B504460D46262200212CF009
:1053A000BFFF2046FFF722FF064B20462946236019
:1053B0002B88E384FF2384F8283018F03DFC204636
:1053C00038BD00BFBC8703082DE9F04F04468BB001
:1053D00000251CF051FAA146C54B04F16C0B04F1F9
:1053E0009807E563012649F8403B4846FFF778FFF8
:1053F0005846FFF775FF6421384604F23C4817F021
:1054000043FDBC4B29466322C4F8983004F5F4737D
:1054100038464FF6FF7AC4E97735C4E97565FFF77A
:10542000ECF9B54BA4F8E451C4F8983004F55E7378
:105430001846039317F086F90A2384F8B063C4F87A
:10544000AC33AE4BC4F8B453C4F8783304F56E7380
:10545000C4E9E9561846049317F074F90A2384F84E
:10546000F063C4F8EC33A64BC4F8F453C4F8B83373
:1054700004F57E73C4E9F9561846059317F062F9EE
:10548000A04B04F58562C4F8F8334FF002031046D0
:10549000069284F82434FEF781F89B4B4046C4F80A
:1054A0003454C4F828342433C4F83034FFF79EFE53
:1054B0004FF47F4304F58E6209A9A4F86834934B36
:1054C0001046C4F86454C4F83C34C4F86C5484F8EE
:1054D00060640292ADF824A0FFF75CFF2A462946DB
:1054E0000298A4F89CA4A4F89EA4FFF791FE029948
:1054F000404614F081FB864B09A9A4F8A0A4C4F887
:105500003C3404F2A443A4F8A2A41846ADF824A0A5
:105510000793FFF73FFF079B404604F1040A194633
:1055200014F06AFB04F500537A4A04F59A604FF4CC
:10553000E151C3E93C24784AC3E93E2519F078FAE1
:105540002A4629464846FFF763FE4FF488724846CC
:105550004FF4F071FFF79BFE4FF07F4349465046F2
:10556000A36614F049FB2A4629465846FFF750FE29
:105570004FF4887258464FF4F071FFF788FE4FF0F1
:105580007F4359465046C4F894304FF0480B14F00E
:1055900033FB2A4629463846FFF73AFE38464FF491
:1055A00088724FF4F071FFF772FE2A463146384692
:1055B000FFF7E1FA2B462A4629463846009517F0B0
:1055C00014FC2B462A4629463846009517F034FB32
:1055D0002946384640F6E442FFF7A0F9D4F8A8136C
:1055E0000A22DFF8409184F8B06302FB01F03246F2
:1055F000C4F8A493002884F89EB3B8BF4042C4F80E
:10560000AC0317F0A5FC0399C4E9EA60384617F02B
:105610001EFBD4F8E8134FF4A5703246C4F8E493A7
:10562000484384F8F063002884F8DEB3B8BF4042F2
:10563000C4F8EC0317F08CFC0499C4E9FA6038460E
:1056400017F005FB354B05993846C4F8343442F65B
:105650005F63A4F83834069BC4F820344FF002038B
:1056600084F8243417F0F3FA3946504614F0C4FA9B
:10567000032309AA08A9ADF820304FF002034046E1
:10568000ADF82430FFF710FE2A4629460298FFF7AE
:10569000BFFD062309AA08A9ADF82030042340461F
:1056A000ADF82430FFF7C1FD1D4B404684F8695426
:1056B000C4F8A834D4F83C34D3F89030984704F5B3
:1056C00003532A46294630334046C4F86C34FFF76A
:1056D0009FFD4FF4887240464FF4F071FFF7D7FDFD
:1056E0005046414614F088FA20460BB0BDE8F08FD2
:1056F000D45C030838830308DC5903086C5803089A
:10570000245903080086030828820308785B0308ED
:10571000185C0308BC5C0308D3510008FFCA2BFFC8
:1057200010000B00C59714FF7047704730B44468F1
:105730000346C2689B68551004EB6200D20748BF5D
:10574000625930BC48BFD35818470346406830B14F
:105750009A681AB9D86800F00100704701207047B4
:1057600010B5044610212BF0D8FB204610BD0000D8
:10577000034B10B50446036019F064F9204610BDD0
:10578000205D0308064B10B50446036019F05AF972
:105790004FF4045120462BF0C0FB204610BD00BF43
:1057A000205D030800F23C40884208B505D11AF09C
:1057B00051F9BDE80840FEF7F5BB08BD2DE9F04FF3
:1057C00004468BB000251CF057F8A146C54B04F1E8
:1057D0006C0B04F19807E563012649F8403B484605
:1057E000FFF77EFD5846FFF77BFD6421384604F243
:1057F0003C4817F049FBBC4B29466322C4F898305B
:1058000004F5F47338464FF6FF7AC4E97735C4E9F6
:105810007565FEF7F2FFB54BA4F8E451C4F8983073
:1058200004F55E731846039316F08CFF0A2384F880
:10583000B063C4F8AC33AE4BC4F8B453C4F8783397
:1058400004F56E73C4E9E9561846049316F07AFF1E
:105850000A2384F8F063C4F8EC33A64BC4F8F4537D
:10586000C4F8B83304F57E73C4E9F95618460593B5
:1058700016F068FFA04B04F58562C4F8F8334FF0CA
:1058800002031046069284F82434FDF787FE9B4BF2
:105890004046C4F83454C4F828342433C4F83034AF
:1058A000FFF7A4FC4FF47F4304F58E6209A9A4F826
:1058B0006834934B1046C4F86454C4F83C34C4F8BC
:1058C0006C5484F860640292ADF824A0FFF762FD86
:1058D0002A4629460298A4F89CA4A4F89EA4FFF79F
:1058E00097FC0299404614F087F9864B09A9A4F861
:1058F000A0A4C4F83C3404F2A443A4F8A2A418461B
:10590000ADF824A00793FFF745FD079B404604F13F
:10591000040A194614F070F904F500537A4A04F5A4
:105920009A604FF4E151C3E93C24784AC3E93E252B
:1059300019F07EF82A4629464846FFF769FC4FF4DD
:10594000887248464FF4F071FFF7A1FC4FF07F4397
:1059500049465046A36614F04FF92A462946584650
:10596000FFF756FC4FF4887258464FF4F071FFF77A
:105970008EFC4FF07F4359465046C4F894304FF0A8
:10598000480B14F039F92A4629463846FFF740FCFF
:1059900038464FF488724FF4F071FFF778FC2A46CE
:1059A00031463846FFF7E7F82B462A46294638465F
:1059B000009517F01AFA2B462A46294638460095D4
:1059C00017F03AF92946384640F6E442FEF7A6FFBA
:1059D000D4F8A8130A22DFF83C9184F8B06302FBE4
:1059E00001F03246C4F8A493002884F89EB3B8BFEF
:1059F0004042C4F8AC0317F0ABFA0399C4E9EA607B
:105A0000384617F024F9D4F8E8134FF4A57032465D
:105A1000C4F8E493484384F8F063002884F8DEB3C4
:105A2000B8BF4042C4F8EC0317F092FA0499C4E9F5
:105A3000FA60384617F00BF94FF6EB7305993846C4
:105A4000A4F83834069BC4F83494C4F820344FF0DA
:105A5000020384F8243417F0FAF83946504614F05B
:105A6000CBF8032309AA08A9ADF820304FF00203B0
:105A70004046ADF82430FFF717FC2A462946029825
:105A8000FFF7C6FB062309AA08A9ADF820300423B6
:105A90004046ADF82430FFF7C8FB1D4B404684F864
:105AA0006954C4F8A834D4F83C34D3F890309847FB
:105AB00004F503532A46294630334046C4F86C3473
:105AC000FFF7A6FB4FF4887240464FF4F071FFF7E2
:105AD000DEFB5046414614F08FF820460BB0BDE87F
